:1000000012C01FC01EC01DC01CC01BC01AC019C01A
:1000100018C017C016C015C014C013C012C011C03C
:1000200010C00FC00EC011241FBECFEDCDBF20E009
:10003000A0E6B0E001C01D92A536B207E1F726D0D8
:1000400057C0DECF87B38C6187BB089583E880BF3C
:1000500081E083BF8FEF86BF81EA8FBD89E08EBDCF
:100060008FEF90E09BBD8ABD99BD88BD089592B980
:1000700089B988E18AB986E083B908955D9BFECF8E
:100080008CB908955F9BFECF8CB10895CF93DF9319
:10009000CDB7DD27C350CDBFD5DF2FEF87EA91E67F
:1000A000215080409040E1F700C0000083E090E0E4
:1000B000DEDFCCDF789400E011E0100FE3DFE1E059
:1000C000F0E0EC0FFD1FE00FF11D8083133010F402
:1000D000012FF2CF898186BF8981D0DF8A818ABDD5
:1000E0008A81CCDF8B8188BD8B81C8DF10E0F0CFA7
:0400F000F894FFCFB2
:00000001FF
